Name: Trollcoin

PORTS:
RPC (main) = 8650 [9332]
RPC (test) = 18650 [19332]
P2P (main) = 8655 [9333]
P2P (test) = 18655 [19333]

[START MAINNET GENESIS BLOCK]
2014-01-01 05:29:25 block.nTime = 1388551968 
2014-01-01 05:29:25 block.nNonce = 2958312 
2014-01-01 05:29:25 block.GetHash = a74d69075bb7bca24cb725582c158049be0885a7b1fa0241456c8de8e0a6c17d
2014-01-01 05:29:25 [[[ DEBUG POINT 3 ]]]
2014-01-01 05:29:25 CBlock(hash=a74d69075bb7bca24cb725582c158049be0885a7b1fa0241456c8de8e0a6c17d, input=010000000000000000000000000000000000000000000000000000000000000000000000a9c17379f2721a0b6ca36524a8df859098624bb11e33e5482d466129988e0d1c209fc352f0ff0f1ee8232d00, PoW=00000e044bb49817b4cdefe2e3b0eb0a77e6dc78f125ed1faa39023ce1fb7655, ver=1, hashPrevBlock=0000000000000000000000000000000000000000000000000000000000000000, hashMerkleRoot=1c0d8e982961462d48e5331eb14b62989085dfa82465a36c0b1a72f27973c1a9, nTime=1388551968, nBits=1e0ffff0, nNonce=2958312, vtx=1)
2014-01-01 05:29:25   CTransaction(hash=1c0d8e982961462d48e5331eb14b62989085dfa82465a36c0b1a72f27973c1a9, ver=1, vin.size=1, vout.size=1, nLockTime=0)
    CTxIn(COutPoint(0000000000000000000000000000000000000000000000000000000000000000, 4294967295), coinbase 04ffff001d0104186c6f6c20692063616e2068617320636f696e7320756d6164)
    CTxOut(nValue=100.00000000, scriptPubKey=040184710fa689ad5023690c80f3a4)
  vMerkleTree: 1c0d8e982961462d48e5331eb14b62989085dfa82465a36c0b1a72f27973c1a9\
[END MAINNET GENESIS BLOCK]
